{
  "contractName": "CourseContract",
  "abi": [
    {
      "inputs": [],
      "stateMutability": "nonpayable",
      "type": "constructor"
    },
    {
      "anonymous": false,
      "inputs": [
        {
          "indexed": false,
          "internalType": "string",
          "name": "auther",
          "type": "string"
        },
        {
          "indexed": false,
          "internalType": "string",
          "name": "courseName",
          "type": "string"
        },
        {
          "indexed": false,
          "internalType": "uint256",
          "name": "cost",
          "type": "uint256"
        }
      ],
      "name": "CourseBought",
      "type": "event"
    },
    {
      "anonymous": false,
      "inputs": [
        {
          "indexed": false,
          "internalType": "string",
          "name": "auther",
          "type": "string"
        },
        {
          "indexed": false,
          "internalType": "string",
          "name": "courseName",
          "type": "string"
        },
        {
          "indexed": false,
          "internalType": "uint256",
          "name": "cost",
          "type": "uint256"
        }
      ],
      "name": "CourseCreated",
      "type": "event"
    },
    {
      "inputs": [
        {
          "internalType": "string",
          "name": "auther",
          "type": "string"
        }
      ],
      "name": "signUp",
      "outputs": [],
      "stateMutability": "nonpayable",
      "type": "function"
    },
    {
      "inputs": [
        {
          "internalType": "string",
          "name": "auther",
          "type": "string"
        },
        {
          "internalType": "string",
          "name": "courseName",
          "type": "string"
        },
        {
          "internalType": "string",
          "name": "summary",
          "type": "string"
        },
        {
          "internalType": "string",
          "name": "content",
          "type": "string"
        },
        {
          "internalType": "string",
          "name": "title",
          "type": "string"
        },
        {
          "internalType": "uint256",
          "name": "cost",
          "type": "uint256"
        }
      ],
      "name": "createCourse",
      "outputs": [],
      "stateMutability": "nonpayable",
      "type": "function"
    },
    {
      "inputs": [],
      "name": "getAllCourses",
      "outputs": [
        {
          "internalType": "string[]",
          "name": "",
          "type": "string[]"
        }
      ],
      "stateMutability": "view",
      "type": "function",
      "constant": true
    },
    {
      "inputs": [],
      "name": "getBoughtCourses",
      "outputs": [
        {
          "internalType": "string[]",
          "name": "",
          "type": "string[]"
        }
      ],
      "stateMutability": "view",
      "type": "function",
      "constant": true
    },
    {
      "inputs": [],
      "name": "getCreatedCourses",
      "outputs": [
        {
          "internalType": "string[]",
          "name": "",
          "type": "string[]"
        }
      ],
      "stateMutability": "view",
      "type": "function",
      "constant": true
    },
    {
      "inputs": [
        {
          "internalType": "string",
          "name": "auther",
          "type": "string"
        },
        {
          "internalType": "string",
          "name": "courseName",
          "type": "string"
        }
      ],
      "name": "deleteCourse",
      "outputs": [],
      "stateMutability": "nonpayable",
      "type": "function"
    },
    {
      "inputs": [
        {
          "internalType": "string",
          "name": "auther",
          "type": "string"
        },
        {
          "internalType": "string",
          "name": "courseName",
          "type": "string"
        }
      ],
      "name": "getCourse",
      "outputs": [
        {
          "internalType": "string",
          "name": "title",
          "type": "string"
        },
        {
          "internalType": "string",
          "name": "content",
          "type": "string"
        }
      ],
      "stateMutability": "view",
      "type": "function",
      "constant": true
    },
    {
      "inputs": [
        {
          "internalType": "string",
          "name": "auther",
          "type": "string"
        },
        {
          "internalType": "string",
          "name": "courseName",
          "type": "string"
        }
      ],
      "name": "getCourseMeta",
      "outputs": [
        {
          "internalType": "string",
          "name": "title",
          "type": "string"
        },
        {
          "internalType": "string",
          "name": "summary",
          "type": "string"
        },
        {
          "internalType": "uint256",
          "name": "amount",
          "type": "uint256"
        }
      ],
      "stateMutability": "view",
      "type": "function",
      "constant": true
    },
    {
      "inputs": [
        {
          "internalType": "string",
          "name": "auther",
          "type": "string"
        },
        {
          "internalType": "string",
          "name": "courseName",
          "type": "string"
        }
      ],
      "name": "buyCourse",
      "outputs": [],
      "stateMutability": "payable",
      "type": "function",
      "payable": true
    },
    {
      "inputs": [
        {
          "internalType": "string",
          "name": "userId",
          "type": "string"
        }
      ],
      "name": "isUserSignedUp",
      "outputs": [
        {
          "internalType": "bool",
          "name": "",
          "type": "bool"
        }
      ],
      "stateMutability": "view",
      "type": "function",
      "constant": true
    }
  ],
  "bytecode": "0x608060405234801561001057600080fd5b50336000806101000a81548173ffffffffffffffffffffffffffffffffffffffff021916908373ffffffffffffffffffffffffffffffffffffffff160217905550612b01806100606000396000f3fe6080604052600436106100915760003560e01c806373b0ce8a1161005957806373b0ce8a1461017b57806379a1bf2914610197578063aa60f0a7146101d6578063adcfb4fc14610214578063b28883201461023d57610091565b806304e48bd1146100965780631212aa00146100c15780631a11cb23146100ea5780632a51c105146101155780635a3872311461013e575b600080fd5b3480156100a257600080fd5b506100ab610268565b6040516100b891906123bf565b60405180910390f35b3480156100cd57600080fd5b506100e860048036038101906100e39190611fdc565b6103cd565b005b3480156100f657600080fd5b506100ff6106af565b60405161010c91906123bf565b60405180910390f35b34801561012157600080fd5b5061013c60048036038101906101379190611f70565b610851565b005b34801561014a57600080fd5b5061016560048036038101906101609190611f2f565b610bad565b60405161017291906123e1565b60405180910390f35b61019560048036038101906101909190611f70565b610c7a565b005b3480156101a357600080fd5b506101be60048036038101906101b99190611f70565b610eb5565b6040516101cd93929190612433565b60405180910390f35b3480156101e257600080fd5b506101fd60048036038101906101f89190611f70565b611062565b60405161020b9291906123fc565b60405180910390f35b34801561022057600080fd5b5061023b60048036038101906102369190611f2f565b611306565b005b34801561024957600080fd5b50610252611541565b60405161025f91906123bf565b60405180910390f35b6060600160003373ffffffffffffffffffffffffffffffffffffffff1673ffffffffffffffffffffffffffffffffffffffff16815260200190815260200160002060009054906101000a900460ff166102f6576040517f08c379a00000000000000000000000000000000000000000000000000000000081526004016102ed906124f8565b60405180910390fd5b6007805480602002602001604051908101604052809291908181526020016000905b828210156103c457838290600052602060002001805461033790612781565b80601f016020809104026020016040519081016040528092919081815260200182805461036390612781565b80156103b05780601f10610385576101008083540402835291602001916103b0565b820191906000526020600020905b81548152906001019060200180831161039357829003601f168201915b505050505081526020019060010190610318565b50505050905090565b600160003373ffffffffffffffffffffffffffffffffffffffff1673ffffffffffffffffffffffffffffffffffffffff16815260200190815260200160002060009054906101000a900460ff16610459576040517f08c379a0000000000000000000000000000000000000000000000000000000008152600401610450906124f8565b60405180910390fd5b60038660405161046991906123a8565b908152602001604051809103902060009054906101000a900473ffffffffffffffffffffffffffffffffffffffff1673ffffffffffffffffffffffffffffffffffffffff163373ffffffffffffffffffffffffffffffffffffffff1614610505576040517f08c379a00000000000000000000000000000000000000000000000000000000081526004016104fc90612478565b60405180910390fd5b600061051187876116e3565b905060405180608001604052808381526020018581526020018681526020018481525060028260405161054491906123a8565b9081526020016040518091039020600082015181600001556020820151816001019080519060200190610578929190611d42565b506040820151816002019080519060200190610595929190611d42565b5060608201518160030190805190602001906105b2929190611d42565b509050506007819080600181540180825580915050600190039060005260206000200160009091909190915090805190602001906105f1929190611d42565b50600660003373ffffffffffffffffffffffffffffffffffffffff1673ffffffffffffffffffffffffffffffffffffffff1681526020019081526020016000208190806001815401808255809150506001900390600052602060002001600090919091909150908051906020019061066a929190611d42565b507f435059f5e8c991cf40023954a3bff34d8b4e8700e004c1379918974e2e00c1f787878460405161069e93929190612433565b60405180910390a150505050505050565b6060600160003373ffffffffffffffffffffffffffffffffffffffff1673ffffffffffffffffffffffffffffffffffffffff16815260200190815260200160002060009054906101000a900460ff1661073d576040517f08c379a0000000000000000000000000000000000000000000000000000000008152600401610734906124f8565b60405180910390fd5b600660003373ffffffffffffffffffffffffffffffffffffffff1673ffffffffffffffffffffffffffffffffffffffff168152602001908152602001600020805480602002602001604051908101604052809291908181526020016000905b828210156108485783829060005260206000200180546107bb90612781565b80601f01602080910402602001604051908101604052809291908181526020018280546107e790612781565b80156108345780601f1061080957610100808354040283529160200191610834565b820191906000526020600020905b81548152906001019060200180831161081757829003601f168201915b50505050508152602001906001019061079c565b50505050905090565b600160003373ffffffffffffffffffffffffffffffffffffffff1673ffffffffffffffffffffffffffffffffffffffff16815260200190815260200160002060009054906101000a900460ff166108dd576040517f08c379a00000000000000000000000000000000000000000000000000000000081526004016108d4906124f8565b60405180910390fd5b60006108e983836116e3565b90503373ffffffffffffffffffffffffffffffffffffffff1660038460405161091291906123a8565b908152602001604051809103902060009054906101000a900473ffffffffffffffffffffffffffffffffffffffff1673ffffffffffffffffffffffffffffffffffffffff1614610997576040517f08c379a000000000000000000000000000000000000000000000000000000000815260040161098e90612498565b60405180910390fd5b60006002826040516109a991906123a8565b908152602001604051809103902060000154116109fb576040517f08c379a00000000000000000000000000000000000000000000000000000000081526004016109f2906124b8565b60405180910390fd5b600281604051610a0b91906123a8565b9081526020016040518091039020600080820160009055600182016000610a329190611dc8565b600282016000610a429190611dc8565b600382016000610a529190611dc8565b505060005b600780549050811015610ba757600060078281548110610aa0577f4e487b7100000000000000000000000000000000000000000000000000000000600052603260045260246000fd5b906000526020600020018054610ab590612781565b80601f0160208091040260200160405190810160405280929190818152602001828054610ae190612781565b8015610b2e5780601f10610b0357610100808354040283529160200191610b2e565b820191906000526020600020905b815481529060010190602001808311610b1157829003601f168201915b5050505050905082604051602001610b4691906123a8565b6040516020818303038152906040528051906020012081604051602001610b6d91906123a8565b604051602081830303815290604052805190602001201415610b9357610b9282611a4e565b5b508080610b9f906127e4565b915050610a57565b50505050565b6000600160003373ffffffffffffffffffffffffffffffffffffffff1673ffffffffffffffffffffffffffffffffffffffff16815260200190815260200160002060009054906101000a900460ff168015610c735750600073ffffffffffffffffffffffffffffffffffffffff16600383604051610c2b91906123a8565b908152602001604051809103902060009054906101000a900473ffffffffffffffffffffffffffffffffffffffff1673ffffffffffffffffffffffffffffffffffffffff1614155b9050919050565b60003390506000610c8b84846116e3565b9050610c98828583611b9f565b6000600282604051610caa91906123a8565b908152602001604051809103902060000154905047811115610d01576040517f08c379a0000000000000000000000000000000000000000000000000000000008152600401610cf8906125b8565b60405180910390fd5b600385604051610d1191906123a8565b908152602001604051809103902060009054906101000a900473ffffffffffffffffffffffffffffffffffffffff1673ffffffffffffffffffffffffffffffffffffffff166108fc479081150290604051600060405180830381858888f19350505050158015610d85573d6000803e3d6000fd5b506001600483604051610d9891906123a8565b908152602001604051809103902060008573ffffffffffffffffffffffffffffffffffffffff1673ffffffffffffffffffffffffffffffffffffffff16815260200190815260200160002060006101000a81548160ff021916908315150217905550600560008473ffffffffffffffffffffffffffffffffffffffff1673ffffffffffffffffffffffffffffffffffffffff16815260200190815260200160002082908060018154018082558091505060019003906000526020600020016000909190919091509080519060200190610e72929190611d42565b507f7a7991ebf3ee6fb0dfcd46763c78c5775da68084d69734972bd9d5cdc539bd31858583604051610ea693929190612433565b60405180910390a15050505050565b6060806000803390506000610eca87876116e3565b9050610ed7828883611b9f565b600281604051610ee791906123a8565b9081526020016040518091039020600301600282604051610f0891906123a8565b9081526020016040518091039020600201600283604051610f2991906123a8565b908152602001604051809103902060000154828054610f4790612781565b80601f0160208091040260200160405190810160405280929190818152602001828054610f7390612781565b8015610fc05780601f10610f9557610100808354040283529160200191610fc0565b820191906000526020600020905b815481529060010190602001808311610fa357829003601f168201915b50505050509250818054610fd390612781565b80601f0160208091040260200160405190810160405280929190818152602001828054610fff90612781565b801561104c5780601f106110215761010080835404028352916020019161104c565b820191906000526020600020905b81548152906001019060200180831161102f57829003601f168201915b5050505050915094509450945050509250925092565b6060806000339050600061107686866116e3565b9050611083828783611b9f565b60048160405161109391906123a8565b908152602001604051809103902060008373ffffffffffffffffffffffffffffffffffffffff1673ffffffffffffffffffffffffffffffffffffffff16815260200190815260200160002060009054906101000a900460ff168061116057503373ffffffffffffffffffffffffffffffffffffffff1660038760405161111991906123a8565b908152602001604051809103902060009054906101000a900473ffffffffffffffffffffffffffffffffffffffff1673ffffffffffffffffffffffffffffffffffffffff16145b61119f576040517f08c379a000000000000000000000000000000000000000000000000000000000815260040161119690612598565b60405180910390fd5b6002816040516111af91906123a8565b90815260200160405180910390206003016002826040516111d091906123a8565b90815260200160405180910390206001018180546111ed90612781565b80601f016020809104026020016040519081016040528092919081815260200182805461121990612781565b80156112665780601f1061123b57610100808354040283529160200191611266565b820191906000526020600020905b81548152906001019060200180831161124957829003601f168201915b5050505050915080805461127990612781565b80601f01602080910402602001604051908101604052809291908181526020018280546112a590612781565b80156112f25780601f106112c7576101008083540402835291602001916112f2565b820191906000526020600020905b8154815290600101906020018083116112d557829003601f168201915b505050505090509350935050509250929050565b6000339050600160008273ffffffffffffffffffffffffffffffffffffffff1673ffffffffffffffffffffffffffffffffffffffff16815260200190815260200160002060009054906101000a900460ff1615611398576040517f08c379a000000000000000000000000000000000000000000000000000000000815260040161138f90612538565b60405180910390fd5b600073ffffffffffffffffffffffffffffffffffffffff166003836040516113c091906123a8565b908152602001604051809103902060009054906101000a900473ffffffffffffffffffffffffffffffffffffffff1673ffffffffffffffffffffffffffffffffffffffff1614611445576040517f08c379a000000000000000000000000000000000000000000000000000000000815260040161143c90612518565b60405180910390fd5b6000825111611489576040517f08c379a0000000000000000000000000000000000000000000000000000000008152600401611480906124d8565b60405180910390fd5b60018060008373ffffffffffffffffffffffffffffffffffffffff1673ffffffffffffffffffffffffffffffffffffffff16815260200190815260200160002060006101000a81548160ff021916908315150217905550806003836040516114f191906123a8565b908152602001604051809103902060006101000a81548173ffffffffffffffffffffffffffffffffffffffff021916908373ffffffffffffffffffffffffffffffffffffffff1602179055505050565b6060600160003373ffffffffffffffffffffffffffffffffffffffff1673ffffffffffffffffffffffffffffffffffffffff16815260200190815260200160002060009054906101000a900460ff166115cf576040517f08c379a00000000000000000000000000000000000000000000000000000000081526004016115c6906124f8565b60405180910390fd5b600560003373ffffffffffffffffffffffffffffffffffffffff1673ffffffffffffffffffffffffffffffffffffffff168152602001908152602001600020805480602002602001604051908101604052809291908181526020016000905b828210156116da57838290600052602060002001805461164d90612781565b80601f016020809104026020016040519081016040528092919081815260200182805461167990612781565b80156116c65780601f1061169b576101008083540402835291602001916116c6565b820191906000526020600020905b8154815290600101906020018083116116a957829003601f168201915b50505050508152602001906001019061162e565b50505050905090565b60606000839050600083905060006040518060400160405280600181526020017f5f000000000000000000000000000000000000000000000000000000000000008152509050600081518351855161173b919061269f565b611745919061269f565b67ffffffffffffffff811115611784577f4e487b7100000000000000000000000000000000000000000000000000000000600052604160045260246000fd5b6040519080825280601f01601f1916602001820160405280156117b65781602001600182028036833780820191505090505b50905060005b8451811015611884578481815181106117fe577f4e487b7100000000000000000000000000000000000000000000000000000000600052603260045260246000fd5b602001015160f81c60f81b828281518110611842577f4e487b7100000000000000000000000000000000000000000000000000000000600052603260045260246000fd5b60200101907effffffffffffffffffffffffffffffffffffffffffffffffffffffffffffff1916908160001a905350808061187c906127e4565b9150506117bc565b5060005b825181101561195c578281815181106118ca577f4e487b7100000000000000000000000000000000000000000000000000000000600052603260045260246000fd5b602001015160f81c60f81b828287516118e3919061269f565b8151811061191a577f4e487b7100000000000000000000000000000000000000000000000000000000600052603260045260246000fd5b60200101907effffffffffffffffffffffffffffffffffffffffffffffffffffffffffffff1916908160001a9053508080611954906127e4565b915050611888565b5060005b8351811015611a40578381815181106119a2577f4e487b7100000000000000000000000000000000000000000000000000000000600052603260045260246000fd5b602001015160f81c60f81b8282875186516119bd919061269f565b6119c7919061269f565b815181106119fe577f4e487b7100000000000000000000000000000000000000000000000000000000600052603260045260246000fd5b60200101907effffffffffffffffffffffffffffffffffffffffffffffffffffffffffffff1916908160001a9053508080611a38906127e4565b915050611960565b508094505050505092915050565b6007805490508110611a95576040517f08c379a0000000000000000000000000000000000000000000000000000000008152600401611a8c90612578565b60405180910390fd5b60076001600780549050611aa991906126f5565b81548110611ae0577f4e487b7100000000000000000000000000000000000000000000000000000000600052603260045260246000fd5b9060005260206000200160078281548110611b24577f4e487b7100000000000000000000000000000000000000000000000000000000600052603260045260246000fd5b90600052602060002001908054611b3a90612781565b611b45929190611e08565b506007805480611b7e577f4e487b7100000000000000000000000000000000000000000000000000000000600052603160045260246000fd5b600190038181906000526020600020016000611b9a9190611dc8565b905550565b600160008473ffffffffffffffffffffffffffffffffffffffff1673ffffffffffffffffffffffffffffffffffffffff16815260200190815260200160002060009054906101000a900460ff16611c2b576040517f08c379a0000000000000000000000000000000000000000000000000000000008152600401611c22906124f8565b60405180910390fd5b600073ffffffffffffffffffffffffffffffffffffffff16600383604051611c5391906123a8565b908152602001604051809103902060009054906101000a900473ffffffffffffffffffffffffffffffffffffffff1673ffffffffffffffffffffffffffffffffffffffff161415611cd9576040517f08c379a0000000000000000000000000000000000000000000000000000000008152600401611cd090612558565b60405180910390fd5b6000600282604051611ceb91906123a8565b90815260200160405180910390206000015411611d3d576040517f08c379a0000000000000000000000000000000000000000000000000000000008152600401611d34906124b8565b60405180910390fd5b505050565b828054611d4e90612781565b90600052602060002090601f016020900481019282611d705760008555611db7565b82601f10611d8957805160ff1916838001178555611db7565b82800160010185558215611db7579182015b82811115611db6578251825591602001919060010190611d9b565b5b509050611dc49190611e95565b5090565b508054611dd490612781565b6000825580601f10611de65750611e05565b601f016020900490600052602060002090810190611e049190611e95565b5b50565b828054611e1490612781565b90600052602060002090601f016020900481019282611e365760008555611e84565b82601f10611e475780548555611e84565b82800160010185558215611e8457600052602060002091601f016020900482015b82811115611e83578254825591600101919060010190611e68565b5b509050611e919190611e95565b5090565b5b80821115611eae576000816000905550600101611e96565b5090565b6000611ec5611ec0846125fd565b6125d8565b905082815260208101848484011115611edd57600080fd5b611ee884828561273f565b509392505050565b600082601f830112611f0157600080fd5b8135611f11848260208601611eb2565b91505092915050565b600081359050611f2981612ab4565b92915050565b600060208284031215611f4157600080fd5b600082013567ffffffffffffffff811115611f5b57600080fd5b611f6784828501611ef0565b91505092915050565b60008060408385031215611f8357600080fd5b600083013567ffffffffffffffff811115611f9d57600080fd5b611fa985828601611ef0565b925050602083013567ffffffffffffffff811115611fc657600080fd5b611fd285828601611ef0565b9150509250929050565b60008060008060008060c08789031215611ff557600080fd5b600087013567ffffffffffffffff81111561200f57600080fd5b61201b89828a01611ef0565b965050602087013567ffffffffffffffff81111561203857600080fd5b61204489828a01611ef0565b955050604087013567ffffffffffffffff81111561206157600080fd5b61206d89828a01611ef0565b945050606087013567ffffffffffffffff81111561208a57600080fd5b61209689828a01611ef0565b935050608087013567ffffffffffffffff8111156120b357600080fd5b6120bf89828a01611ef0565b92505060a06120d089828a01611f1a565b9150509295509295509295565b60006120e98383612175565b905092915050565b60006120fc8261263e565b6121068185612661565b9350836020820285016121188561262e565b8060005b85811015612154578484038952815161213585826120dd565b945061214083612654565b925060208a0199505060018101905061211c565b50829750879550505050505092915050565b61216f81612729565b82525050565b600061218082612649565b61218a8185612672565b935061219a81856020860161274e565b6121a3816128ba565b840191505092915050565b60006121b982612649565b6121c38185612683565b93506121d381856020860161274e565b6121dc816128ba565b840191505092915050565b60006121f282612649565b6121fc8185612694565b935061220c81856020860161274e565b80840191505092915050565b6000612225602783612683565b9150612230826128cb565b604082019050919050565b6000612248601a83612683565b91506122538261291a565b602082019050919050565b600061226b601083612683565b915061227682612943565b602082019050919050565b600061228e601783612683565b91506122998261296c565b602082019050919050565b60006122b1601283612683565b91506122bc82612995565b602082019050919050565b60006122d4601983612683565b91506122df826129be565b602082019050919050565b60006122f7601683612683565b9150612302826129e7565b602082019050919050565b600061231a601083612683565b915061232582612a10565b602082019050919050565b600061233d601383612683565b915061234882612a39565b602082019050919050565b6000612360601a83612683565b915061236b82612a62565b602082019050919050565b6000612383601d83612683565b915061238e82612a8b565b602082019050919050565b6123a281612735565b82525050565b60006123b482846121e7565b915081905092915050565b600060208201905081810360008301526123d981846120f1565b905092915050565b60006020820190506123f66000830184612166565b92915050565b6000604082019050818103600083015261241681856121ae565b9050818103602083015261242a81846121ae565b90509392505050565b6000606082019050818103600083015261244d81866121ae565b9050818103602083015261246181856121ae565b90506124706040830184612399565b949350505050565b6000602082019050818103600083015261249181612218565b9050919050565b600060208201905081810360008301526124b18161223b565b9050919050565b600060208201905081810360008301526124d18161225e565b9050919050565b600060208201905081810360008301526124f181612281565b9050919050565b60006020820190508181036000830152612511816122a4565b9050919050565b60006020820190508181036000830152612531816122c7565b9050919050565b60006020820190508181036000830152612551816122ea565b9050919050565b600060208201905081810360008301526125718161230d565b9050919050565b6000602082019050818103600083015261259181612330565b9050919050565b600060208201905081810360008301526125b181612353565b9050919050565b600060208201905081810360008301526125d181612376565b9050919050565b60006125e26125f3565b90506125ee82826127b3565b919050565b6000604051905090565b600067ffffffffffffffff8211156126185761261761288b565b5b612621826128ba565b9050602081019050919050565b6000819050602082019050919050565b600081519050919050565b600081519050919050565b6000602082019050919050565b600082825260208201905092915050565b600082825260208201905092915050565b600082825260208201905092915050565b600081905092915050565b60006126aa82612735565b91506126b583612735565b9250827fffffffffffffffffffffffffffffffffffffffffffffffffffffffffffffffff038211156126ea576126e961282d565b5b828201905092915050565b600061270082612735565b915061270b83612735565b92508282101561271e5761271d61282d565b5b828203905092915050565b60008115159050919050565b6000819050919050565b82818337600083830152505050565b60005b8381101561276c578082015181840152602081019050612751565b8381111561277b576000848401525b50505050565b6000600282049050600182168061279957607f821691505b602082108114156127ad576127ac61285c565b5b50919050565b6127bc826128ba565b810181811067ffffffffffffffff821117156127db576127da61288b565b5b80604052505050565b60006127ef82612735565b91507fffffffffffffffffffffffffffffffffffffffffffffffffffffffffffffffff8214156128225761282161282d565b5b600182019050919050565b7f4e487b7100000000000000000000000000000000000000000000000000000000600052601160045260246000fd5b7f4e487b7100000000000000000000000000000000000000000000000000000000600052602260045260246000fd5b7f4e487b7100000000000000000000000000000000000000000000000000000000600052604160045260246000fd5b6000601f19601f8301169050919050565b7f43616e74206d616b6520636f75727365206f6e20736f6d656f6e6520656c736560008201527f20626568616c6600000000000000000000000000000000000000000000000000602082015250565b7f43616e206e6f742064656c6574652074686520636f757273652e000000000000600082015250565b7f436f75727365206e6f7420666f756e6400000000000000000000000000000000600082015250565b7f417574686572206e616d65206973207265717569726564000000000000000000600082015250565b7f55736572206e6f74207369676e65642075700000000000000000000000000000600082015250565b7f417574686572206e616d6520616c72656164792074616b656e00000000000000600082015250565b7f5573657220616c7265616479207369676e656420757000000000000000000000600082015250565b7f417574686f72206e6f7420666f756e6400000000000000000000000000000000600082015250565b7f496e646578206f7574206f6620626f756e647300000000000000000000000000600082015250565b7f43616e206e6f74206163636573732074686520636f757273652e000000000000600082015250565b7f496e73756666696369656e7420636f6e74726163742062616c616e6365000000600082015250565b612abd81612735565b8114612ac857600080fd5b5056fea26469706673582212207d0bbde40ff3af055a18bd5119b4e4f216386d7cc4889e1e938080f9bd963dd664736f6c63430008010033",
  "immutableReferences": {},
  "source": "// SPDX-License-Identifier: MIT\r\npragma solidity ^0.8.0;\r\n\r\ncontract CourseContract {\r\n    struct CourseInfo {\r\n        uint256 amount;\r\n        string content;\r\n        string summary;\r\n        string title;\r\n    }\r\n\r\n    address private owner;\r\n    \r\n    mapping(address => bool) private users; // userId to wallet mapping\r\n    mapping(string => CourseInfo) private courses; // userId to course mapping with cost\r\n    mapping(string => address payable) private authers;\r\n    mapping(string => mapping(address => bool)) private canAccess;\r\n\r\n    mapping(address => string[]) private boughtCourses;\r\n    mapping(address => string[]) private createdCourses;\r\n\r\n    string[] private courseKeys;\r\n    \r\n    event CourseCreated(string auther, string courseName, uint256 cost);\r\n    event CourseBought(string auther, string courseName, uint256 cost);\r\n    \r\n    modifier onlyOwner() {\r\n        require(msg.sender == owner, \"Not the owner\");\r\n        _;\r\n    }\r\n    \r\n    constructor() {\r\n        owner = msg.sender;\r\n    }\r\n    \r\n    function signUp(string memory auther) external {\r\n        address userId = msg.sender;\r\n        require(!users[userId], \"User already signed up\");\r\n        require(authers[auther] == address(0), \"Auther name already taken\");\r\n        require(bytes(auther).length > 0, \"Auther name is required\");\r\n        users[userId] = true;\r\n        authers[auther] = payable(userId);\r\n    }\r\n    \r\n    function createCourse(string memory auther, string memory courseName, string memory summary,\r\n                string memory content, string memory title, uint256 cost) external {\r\n        require(users[msg.sender], \"User not signed up\");\r\n        require(msg.sender == authers[auther], \"Cant make course on someone else behalf\");\r\n        string memory courseId = concatenateStrings(auther, courseName);\r\n        courses[courseId] = CourseInfo(cost, content, summary, title);\r\n        courseKeys.push(courseId);\r\n        createdCourses[msg.sender].push(courseId);\r\n        emit CourseCreated(auther, courseName, cost);\r\n    }\r\n    \r\n    function getAllCourses() external view returns (string[] memory) {\r\n        require(users[msg.sender], \"User not signed up\");\r\n        return courseKeys;\r\n    }\r\n\r\n    function getBoughtCourses() external view returns (string[] memory) {\r\n        require(users[msg.sender], \"User not signed up\");\r\n        return boughtCourses[msg.sender];\r\n    }\r\n\r\n    function getCreatedCourses() external view returns (string[] memory) {\r\n        require(users[msg.sender], \"User not signed up\");\r\n        return createdCourses[msg.sender];\r\n    }\r\n\r\n    function deleteCourse(string memory auther, string memory courseName) external {\r\n        require(users[msg.sender], \"User not signed up\");\r\n        string memory courseId = concatenateStrings(auther, courseName);\r\n\r\n        require(authers[auther] == msg.sender, \"Can not delete the course.\");\r\n        require(courses[courseId].amount > 0, \"Course not found\");\r\n\r\n        delete courses[courseId];\r\n\r\n        for (uint256 i = 0; i < courseKeys.length; i++) {\r\n            string memory storageCourseId = courseKeys[i];\r\n        \r\n            if (keccak256(abi.encodePacked(storageCourseId)) == keccak256(abi.encodePacked(courseId))) {\r\n                removeItemAtIndex(i);\r\n            }\r\n        }\r\n    }\r\n\r\n    function getCourse(string memory auther, string memory courseName) external view returns (string memory title, string memory content) {\r\n        address userId = msg.sender;\r\n        string memory courseId = concatenateStrings(auther, courseName);\r\n\r\n        verifyCourse(userId, auther, courseId);\r\n        require(canAccess[courseId][userId] || authers[auther] == msg.sender, \"Can not access the course.\");\r\n        return (courses[courseId].title, courses[courseId].content);\r\n    }\r\n\r\n    function getCourseMeta(string memory auther, string memory courseName) external view returns (string memory title, string memory summary, uint256 amount) {\r\n        address userId = msg.sender;\r\n        string memory courseId = concatenateStrings(auther, courseName);\r\n\r\n        verifyCourse(userId, auther, courseId);\r\n        return (courses[courseId].title, courses[courseId].summary, courses[courseId].amount);\r\n    }\r\n    \r\n    function buyCourse(string memory auther, string memory courseName) external payable {\r\n        address userId = msg.sender;\r\n        string memory courseId = concatenateStrings(auther, courseName);\r\n\r\n        verifyCourse(userId, auther, courseId);\r\n        \r\n        uint256 courseCost = courses[courseId].amount;\r\n        require(courseCost <= address(this).balance, \"Insufficient contract balance\");\r\n\r\n        authers[auther].transfer(address(this).balance);\r\n        canAccess[courseId][userId] = true;\r\n        \r\n        boughtCourses[userId].push(courseId);\r\n        emit CourseBought(auther, courseName, courseCost);\r\n    }\r\n    \r\n    function isUserSignedUp(string memory userId) external view returns (bool) {\r\n        return users[msg.sender] && authers[userId] != address(0);\r\n    }\r\n\r\n    function concatenateStrings(string memory str1, string memory str2) private pure returns (string memory) {\r\n        bytes memory str1Bytes = bytes(str1);\r\n        bytes memory str2Bytes = bytes(str2);\r\n        bytes memory joiner = bytes(\"_\");\r\n\r\n        // Create a new bytes array by concatenating str1Bytes and str2Bytes\r\n        bytes memory result = new bytes(str1Bytes.length + str2Bytes.length + joiner.length);\r\n\r\n        // Copy str1Bytes to the result array\r\n        for (uint256 i = 0; i < str1Bytes.length; i++) {\r\n            result[i] = str1Bytes[i];\r\n        }\r\n\r\n        for (uint256 k = 0; k < joiner.length; k++) {\r\n            result[str1Bytes.length + k] = joiner[k];\r\n        }\r\n\r\n        // Copy str2Bytes to the result array starting from str1Bytes.length\r\n        for (uint256 j = 0; j < str2Bytes.length; j++) {\r\n            result[joiner.length + str1Bytes.length + j] = str2Bytes[j];\r\n        }\r\n\r\n        // Convert the result bytes array to a string\r\n        return string(result);\r\n    }\r\n\r\n    function removeItemAtIndex(uint256 index) private {\r\n        require(index < courseKeys.length, \"Index out of bounds\");\r\n\r\n        // Move the last element to the position of the element to be removed\r\n        courseKeys[index] = courseKeys[courseKeys.length - 1];\r\n\r\n        // Resize the array to remove the last element\r\n        courseKeys.pop();\r\n    }\r\n\r\n    function verifyCourse(address userId, string memory auther, string memory courseId) private view {\r\n        require(users[userId], \"User not signed up\");\r\n        require(authers[auther] != address(0), \"Author not found\");\r\n        require(courses[courseId].amount > 0, \"Course not found\");\r\n    }\r\n}\r\n",
  "sourcePath": "C:\\Users\\naima\\Desktop\\blockchain-platform\\contracts\\study_chain.sol",
  "compiler": {
    "name": "solc",
    "version": "0.8.1+commit.df193b15.Emscripten.clang"
  },
  "schemaVersion": "3.4.16",
  "updatedAt": "2023-12-26T16:12:25.386Z",
  "networkType": "ethereum",
  "devdoc": {
    "kind": "dev",
    "methods": {},
    "version": 1
  },
  "userdoc": {
    "kind": "user",
    "methods": {},
    "version": 1
  }
}